:020000021000EC
:109000000060002045D101006DD101006FD1010049
:1090100071D1010073D1010075D101000000000081
:1090200000000000000000000000000077D10100F7
:1090300079D10100000000007BD101007DD1010049
:1090400069C501007FD101007FD101007FD10100FE
:1090500045CE01000000000079C901007FD1010068
:109060007FD101007FD101007FD101007FD10100BC
:109070007FD101007FD101007FD101007FD10100AC
:1090800095CE010095C001007FD101007FD1010084
:109090007FD101007FD101005DC301007FD10100BC
:1090A0007FD101007FD1010000000000000000001E
:1090B0007FD101007FD1010000000000000000000E
:1090C00000000000000000000000000000000000A0
:1090D0000000000000000000000000000000000090
:1090E0000000000000000000000000000000000080
:1090F0000000000000000000000000000000000070
:10910000000000000000000000000000000000005F
:10911000000000000000000000000000000000004F
:10912000000000000000000000000000000000003F
:10913000000000000000000000000000000000002F
:10914000000000000000000000000000000000001F
:10915000000000000000000000000000000000000F
:1091600000000000000000000000000000000000FF
:1091700000000000000000000000000000000000EF
:1091800000000000000000000000000000000000DF
:1091900000000000000000000000000000000000CF
:1091A00000000000000000000000000000000000BF
:1091B00000000000000000000000000000000000AF
:1091C000000000000000000000000000000000009F
:1091D000000000000000000000000000000000008F
:1091E000000000000000000000000000000000007F
:1091F000000000000000000000000000000000006F
:1092000010B5054C237833B9044B13B10448AFF3C0
:1092100000800123237010BDA8250020000000005D
:10922000D09B020008B5034B1BB103490348AFF3C1
:10923000008008BD00000000AC250020D09B02008B
:10924000A3F5803A704700BF174B002B08BF134BA4
:109250009D46FFF7F5FF00218B460F461348144A41
:10926000121A09F059FC0E4B002B00D098470D4BF9
:10927000002B00D098470020002104000D000D486D
:10928000002802D00C48AFF3008009F003FC200056
:10929000290004F025FA09F0E9FB00BF00000800EE
:1092A000000000000000000000600020A825002051
:1092B000302E002000000000000000006DDF70472D
:1092C00079DF70477DDF704764DF70472DE9F04F2D
:1092D00085B000250E9CBDF83CB0B4F800A001910B
:1092E000074690461E46A9463A884A450DDC45B1D8
:1092F0002388013BA3EB0A039BB2FF2B3AD806F865
:109300000A30002005B0BDE8F08F7A6852F82900D5
:10931000039000220DF10B0103A8FFF7D5FF0028F1
:10932000F0D19DF80B20424521D12288002D14BF99
:109330000020022002EB0801014459451ADC3DB926
:10934000013292B2019B2280B354228801322280E2
:1093500022880DF10B01324403A8FFF7B5FF002866
:10936000D0D121889DF80B200A442280012509F1E3
:109370000109B9E70C20C5E72DE9F341089FBDF8C5
:1093800024801546CDE90078022204461E46FFF7E8
:109390009DFF50B93346102229462046CDE9087872
:1093A00002B0BDE8F041FFF791BF02B0BDE8F08127
:1093B0002DE9F04F00231788138090F82D3085B0E9
:1093C00006460D46144653B3082F01D80C2027E15A
:1093D00002A8FFF773FF002840F0228123880822AB
:1093E000EA54238801339BB21B222380EA5420884D
:1093F000013080B2208006220DF10901284409F0D5
:109400007DFB23889DF8082006339BB212F0FE02F4
:1094100018BF01222380EA54238801332380B378C4
:10942000FBB123880433BB42D0D802A8FFF748FF22
:10943000002840F0F58023880322EA542388013372
:109440009BB219222380EA542388BDF808200133F7
:109450009BB2E9182380EA54120A4A702388023327
:109460002380F2789AB12388D91CB942AED8022160
:10947000E954238801339BB201212380E9542388D6
:109480000B449BB22380EA5423880B4423807268E8
:10949000AAB12388D91CB94298D8022192F9002098
:1094A000E954238801339BB20A212380E95423889D
:1094B00001339BB22380EA5423880133238033890C
:1094C000002B40F0A180338A5BB1CDE900472B46E9
:1094D0000722032106F11000FFF74EFF002840F09D
:1094E0009F80338B5BB1CDE900472B4615221421B9
:1094F00006F11800FFF740FF002840F09180326A23
:10950000002A40F09080D6F82480B8F1000F30D0C7
:10951000B8F804302188981C8A1C0244BA423FF6ED
:1095200055AFFE283FF652AF03336B542388013307
:109530009BB2FF222380EA54238801339BB223800D
:10954000B8F80020EA54E918120A4A70208802305C
:1095500080B22080B8F804205AB1D8F80810002949
:109560006BD0284409F0CAFA2388B8F804201344C1
:10957000238096F82C30002B40F09880307800281B
:109580004ED03388012B58D0228802F1020CBC4502
:109590003FF61CAF012805D17378023313449F4274
:1095A000FFF414AF023FBF1ABFB202A905EB0C00D3
:1095B000ADF80870FFF786FE90BB3178BDF8083033
:1095C000022900F0B98072789A4202D39F4280F05B
:1095D000B180012940F0B280974293B2C0F0AE80D2
:1095E000ADF808300821BDF80830FE2B3FF6EEAE8E
:1095F00022880133AB542288013292B22280A954CE
:109600002288134423800BE0CDE900472B46062235
:10961000022106F10800FFF7AFFE00283FF453AF28
:1096200005B0BDE8F08FB4F800C00CF10603BB42F2
:109630003FF6CCAE1188052901D80720F0E76FF47A
:10964000486E01EB0E039BB24FF27D3E7345F4D999
:109650005388052BF1D96FF44860181880B2704513
:10966000EBD94FF6FF70814201D09942E5D805232E
:1096700005F80C30238801339BB212212380E95472
:10968000238801339BB223801188E954E818090A22
:109690004170238802339BB223805288EA54E91830
:1096A000120A4A702388023323802CE7B36A002B06
:1096B000C3D04FF000084FF00C0A4FF0160BB16A00
:1096C0005FFA88F20AFB02F201EB0209B9F80430F2
:1096D000981CFE283FF67AAE208803332B5423884B
:1096E00001339BB2238005F803B0238801339BB27A
:1096F00023808A5AEA54E918120A4A7020880230F4
:1097000080B22080B9F804205AB1D9F80810002995
:1097100093D0284409F0F2F92388B9F804201344BF
:10972000238096F82C2008F101085FFA88F39A420A
:10973000C5D823E7092156E79F42FBD2ADF8087050
:1097400050E730B5C8B1F2B10024651C8D4206DA8D
:109750001588A54212D805196D789D420ED1A142F7
:1097600011D9005D48B1013880B230B10234A3B2E2
:1097700010FA84F4A14206DB138030BD055D01358B
:109780002C44A4B2E1E70020F7E713B5134600220A
:10979000ADF806200DF106020446FFF7D2FF10B126
:1097A000BDF80600204402B010BD75DF704776DFBB
:1097B00070477ADF70477BDF70470000034B1A88E1
:1097C00082420CBF18460020704700BFE0250020F1
:1097D000024B9B6903B11847704700BFC4250020A6
:1097E00073B585B22846FFF7E9FF044638B3174E34
:1097F000027A337B9A420CD200F10A012846FFF725
:10980000D4FFF0B111281AD002B0BDE87040FFF7C4
:10981000DFBF00230372337C43B13B212846FFF7AF
:10982000C6FF30F0080301D0FFF7D2FF736933B1F0
:1098300000228DF80420ADF8065001A8984702B028
:1098400070BD237A01332372F9E700BFC4250020DD
:1098500013B50B46497A02460E4871B9D0E901109A
:109860001C7A002C18BF0146586802F0AFF978B195
:1098700002B0BDE81040FFF7ABBF00211972436989
:1098800033B101218DF80410ADF8062001A89847E6
:1098900002B010BDC42500204B8802889A4212D81D
:1098A00042889A420FD380888B8840F2F311884215
:1098B00094BF021A421A9A4205D80844984234BF0B
:1098C00000200120704700207047000070B5038819
:1098D000122B014659D004D8102B1ED0112B44D086
:1098E00070BD502BFCD12F4BC288DB899A42F7D137
:1098F000038A022BF4D186883046FFF75FFF0546C6
:109900000028EDD001F1120000F0A1F838BB686822
:1099100002F08AF90028E3D009E0C37B012BDFD1F4
:109920004FF6FF70FFF74AFF054620B90420BDE857
:109930007040FFF74DBF8E881B4A068000230372DC
:109940001368C0F80A305368C0F80E3010310A307E
:10995000FFF7A2FF134B6872DB89002BC0D12946A9
:109960003046BDE87040FFF773BF8088FFF726FFE1
:1099700004460028B4D0406802F056F908B1FFF759
:1099800027FF4FF6FF732380AAE786883046FFF74C
:1099900015FF05460028A3D008310A30FFF77CFFE9
:1099A0006872DCE7C4250020F4250020F8B50646DF
:1099B00048B305460FCD154F3C460FC495E8070048
:1099C00084E807003068124C3C60B0B1FFF7F1FE4C
:1099D000C0B9326813682360536863600D480E4A4B
:1099E0004FF6FF7303800D4B40F8043F002102F057
:1099F000DBF8002818BF032004E02046FFF7DBFE59
:109A00000028EBD0F8BD0E20FCE700BFC4250020E5
:109A1000F4250020E0250020E19701000026002029
:109A2000AADF7047002301380B70042806D8DFE84E
:109A300000F00306080A0C0011230B707047212365
:109A4000FBE73123F9E71223F7E72223F5E7008844
:109A500000F0010070470088C0F340007047F0B587
:109A60008B7891B0012B0C4638BF01238DF80E3056
:109A700005460B88ADF80C300021164668460322D7
:109A800009F04AF8607C6946FFF7CCFFA07C0DF135
:109A90000101FFF7C7FFE27B237B217D43EAC2037D
:109AA000227C43EA02139DF80220002922F01902C9
:109AB00003F0190314BF02210121134361F3420390
:109AC0001C22002109A88DF8023009F025F8637BDB
:109AD00013F0300F15D002AF03220021384609F0F1
:109AE0001BF8E07C0DF10901FFF79CFF11238DF8B5
:109AF00008309DF80A300E97012262F342038DF878
:109B00000A30637B8DF824301422A37B8DF8253036
:109B1000002104A809F000F803AB0493A388ADF872
:109B20001C30A368CDF814D01BB1E288ADF8182022
:109B30000893A369002B31D001AF032200213846DE
:109B400008F0EAFFA3691A88ADF82C205A88ADF80E
:109B50002E205A680D97187B0A923946FFF762FF4C
:109B6000A3690DF10501587BFFF75CFFA3699A7AA1
:109B7000197A41EAC201DA7A9B7B41EA02119DF827
:109B80000620002B01F0190122F0190214BF022354
:109B90000123114363F342018DF80610E36903B119
:109BA0000C93334604AA09A92846FFF739FF11B0E0
:109BB000F0BD72DF704773DF704738B5012204468D
:109BC0000D46B0F8D810D0F8D400FFF7DEFD00B194
:109BD000057004F13C0204F1D40104F15400BDE825
:109BE0003840FFF7E6BF80F830107047F8B50446FC
:109BF0000F46002968D0002866D091F87A301BB152
:109C000091F89830002B61D1D7F8A030042B5DD0AB
:109C1000D7F89C30042B59D04FF0000C84F802C0C8
:109C200007F178060FCE251D0FC50FCE0FC596E89C
:109C3000070085E8070084F830C0D7F8A4306363D4
:109C4000D7F8A830A3634FF6FF7504F1D403C4F826
:109C5000E430A4F8E8500722614604F1EA0008F075
:109C60005BFF23780BB984F85450224604F1550168
:109C70001F25C4F8D410384622F8D85FFFF798FBA8
:109C800008BB224604F19301C4F8DC1007F13C0044
:109C900022F8E05FFFF78CFBA8B9A369A4F848306D
:109CA0004FF480730125A4F85030636920640146A5
:109CB00084F83C50636404F13C0204F15400FFF763
:109CC00078FF00B92570F8BD0E20FCE70720FAE701
:109CD000F8B5077804460D46002F00F0F98000F132
:109CE000EA06817007220021304608F015FFE3885C
:109CF00013B1A378012B04D0E3794BB1A378022BE5
:109D000006D1636BABB1012284F8F120082098479B
:109D100004F1EB0304F1F10113F8012B12B999429C
:109D2000FAD117466B1E032B51D8DFE803F0050B61
:109D30000F1284F8F130EBE7A3791BB194F82430CB
:109D400003B95FB9E3790BB1002F42D1237A002B1D
:109D500041D1637A002B0CBF00250425636BA570ED
:109D6000002B3AD0033D012D37D86279AAB394F87D
:109D7000F22092BB84F8F420012284F8F32007201B
:109D8000984704F13C0518220021284608F0C4FE3B
:109D9000E26A531E0121022B94F8243084F83C100F
:109DA00028BF0A4684F8512033B1A36A5A1E022AFA
:109DB00028BF0B4684F85230A278002384F8503034
:109DC000042A1BD8DFE802F06C0D22325200002575
:109DD000C4E70225C2E70325C0E7002384F8F33077
:109DE000CFE7C4E91063C4F8E4300223012284F809
:109DF0003C30802384F83120A4F84830A378002B2D
:109E000051D1636B002B5FD100205CE0022384F80A
:109E10003130032384F83C302369A4F84830002310
:109E2000C4F8E430E36826646364E7E76369636465
:109E3000A369A4F848306379B3B194F8F2309BB9C0
:109E400094F8F43083B1022384F850300421204682
:109E5000FFF7B3FE0028D1D1052384F8313004F197
:109E6000D403C4F8E430C9E70323F6E7E369636485
:109E7000236AA4F84830637983B194F8F2306BB95F
:109E800094F8F43053B1022384F850300421204672
:109E9000FFF793FE0028B1D10623DEE70423DCE7B9
:109EA00084F83130AAE7D4F8E4102A4604F15400CB
:109EB000FFF77FFE38B994F8301094F85400FFF79C
:109EC0007AFE00289DD0F8BD94F8310098479BE7B2
:109ED0000820F8E710B50388112B0C460AD0262B72
:109EE0001FD0102B05D1C37B012B02D18388A1F891
:109EF000E83010BD002381F8F2308288B1F8E830F4
:109F00009A42F6D10B79002BF3D101212046FFF7BD
:109F1000DFFE0028EDD0A36B002BEAD0BDE8104097
:109F20001847037A013B012BE3D8897805230131D7
:109F3000B1FBF3F303EB8303C91AC9B2E6E730B50B
:109F40000D46041D0FCD0FC40FCD0FC495E80700BB
:109F500084E8070030BDA5DF7047B5DF704758B112
:109F60004FF0F7130360FB230371F723C38017231C
:109F7000C1608360002070470E20704730B1A1F1AE
:109F80001703E02B04D80180002070470E20704793
:109F90000720704713B5034680880C4688B91A8895
:109FA0003A2A4BD00FD8102A2ED0112A41D0A37AAA
:109FB0003BB1E1880020FFF7CEFF10B94FF480736A
:109FC000638102B010BD552AF1D1DB88C988A07227
:109FD000172B38BF17238B4228BF0B462381FFF76F
:109FE000BCFFE27A002AE2D1E368002BDFD040F622
:109FF0007721ADF802202289ADF80010ADF80420D9
:10A00000694620469847D2E7DB7B012B04BF0B88CB
:10A01000CB80C98823898B42C9D20020FFF79BFFE0
:10A0200010B90123E372C2E71128C0D10123A37242
:10A03000BDE7F723CB8017238B60B8E75B89CA881D
:10A04000934228BF1346172BCA6838BF17230B81CA
:10A0500062B1C97A51B140F67721ADF80010ADF880
:10A060000200ADF804306946204690470023638122
:10A070009DE7A8DF7047ADDF7047AEDF7047B0DF08
:10A08000704762DF70473CDF70473DDF70477047C5
:10A09000F0B5044689B038B10388512B26D005D8D5
:10A0A000102B17D0112B19D009B0F0BD532BFBD1B9
:10A0B0002F4DC288EB889A42F6D12B7E002BF3D02D
:10A0C00000F0A6F90028EFD06B69022009B0BDE8C6
:10A0D000F04018478288264B9A80E5E7244B818818
:10A0E0009A889142E0D14FF6FF72F5E7204D8288C1
:10A0F000AB889A42D8D18679022ED5D10289EB88D5
:10A100009A42D1D1837B043B022BCDD9102200216E
:10A110000DEB020008F000FD01AF6989A8888DF8F9
:10A12000106002AA02960397FFF7A5FF0646D0B972
:10A130003846FFF790FCB0B19DF81630ADF81460CA
:10A1400043F001038DF81630A88804A9FFF797FFA4
:10A150001128F9D0BDF81430002BA5D104F1080066
:10A1600000F004F9A0E740F2FD13ADF81430EBE77E
:10A170002026002030B587B005460C46102200216D
:10A1800002A808F0C9FC0323ADF8023020238DF8A3
:10A1900004300F4B8DF80550DA88ADF80820022204
:10A1A0008DF80A200022ADF80C200DF10202049275
:10A1B00098888DF8064001AA02A90592FFF75DFF75
:10A1C00020B9BDF80230032B18BF0C2007B030BDFA
:10A1D0002026002010B54FF0FF310020FFF755FF7B
:10A1E000044658B9B121FFF74EFF044630B9044B7D
:10A1F00001205B699847022001F0FCFA204610BD5F
:10A2000020260020F0B51B4B87B002AC024603F1BC
:10A210001007254618685968264603C60833BB420E
:10A220003446F7D122B3144B4FF6FF719980126870
:10A230005A61002119760AB9104A5A610E4800F095
:10A2400053F898B901204FF659630D4A8DF806006E
:10A2500001A9ADF80430FFF70CFF38B906492846CC
:10A26000FFF70FFF10B9044800F058F807B0F0BD31
:10A270000E20FBE7D0630200202600208FA0010003
:10A28000222600204FF0030C00DF704710B5144960
:10A290000B681BB34B680BB30831984708281DD0D7
:10A2A000104C236858B9587601210220FFF762FF4D
:10A2B000A0B123685B690320BDE810401847002265
:10A2C0005A7606210220FFF755FF18B123680320B4
:10A2D0005B699847236802205B69EDE710BD00BF0A
:10A2E0005C2600205826002018B1034B186000207F
:10A2F00070470E20704700BF5826002008B500F0B8
:10A300007DF938B90448FFF7BDFF18B9BDE808402A
:10A3100000F082B908BD00BF5C26002010B588B0EF
:10A32000044620220021684608F0F6FB224603235B
:10A33000ADF8003012F8063B8DF80230BDF80C3055
:10A34000608823F4235323F03F0343F4205343F066
:10A350000103ADF80C301723ADF8043069464FF017
:10A3600001330493FFF77BFB08B010BD70B50546C1
:10A37000007B244C01280ED0022824D00221287B07
:10A38000FFF7F8FE18B1236803205B69984723683C
:10A3900002205B6909E023685E7E4EB10621FFF76B
:10A3A000E9FE50B323685B690320BDE8704018479D
:10A3B00018760146FFF7DEFEF8B1236811281E76F5
:10A3C0001CD00421DBE76A7B531E132B18D80E4EDA
:10A3D00005F10E01301D08F091FB6B7BB361236822
:10A3E0005B7E002BEDD10949304651F8083B984778
:10A3F0000028E6D1236801225A7670BD0621BEE707
:10A400000521BCE7582600203C2600205C260020C1
:10A4100008B5044B1B6800205B699847BDE80840FD
:10A42000FFF7D8BE5826002030B5054659B1B2FB1B
:10A43000F3F403FB1424A0B238B9C5E90010A860F6
:10A44000AA81EB8130BD0E20FCE70920FAE782B03B
:10A4500050E8022FC188B2EB324F4FF0000317BF14
:10A4600092B241EA014142EA014104E04268B2EBA2
:10A47000324F08BF012340E80212002AE8D18DF8CC
:10A4800007309DF80730002B0CBF1120002002B0D0
:10A49000704737B550E8013F9DB2C489254484898F
:10A4A000A54228BF2D1B0489A54202BFBFF32F8FF1
:10A4B000002207E0C5EA030540E80154002CE9D179
:10A4C0004FF001028DF803200193019A0A609DF874
:10A4D000031001F0FF0321B1006810FA82F003B00D
:10A4E00030BD1846FBE70A884B889A4209D150E8EC
:10A4F000012FC2EA024240E80123002BF7D10120DC
:10A5000070470020704737B550E8023F1FFAA3F5A7
:10A51000C488A54202BFBFF32F8F00220DE0C4897B
:10A5200025448489A54228BF2D1BC3EA054540E880
:10A530000254002CE8D14FF001028DF80320019362
:10A54000019A0A609DF8031001F0FF0321B1006831
:10A5500000EB124003B030BD1846FBE70A884B8879
:10A560009A4209D150E8022FC2EA224240E802236F
:10A57000002BF7D1012070470020704710B503462B
:10A5800053E8000F0A4643E8002494F0000FF7D187
:10A5900010BD10B5034653E8000F40EA010243E83E
:10A5A000002494F0000FF6D110BD10B5034653E817
:10A5B000000F00EB010243E8002494F0000FF6D1F5
:10A5C00010BD10B5034653E8002F02EB010043E82D
:10A5D000000494F0000FF6D110BD10B5034653E807
:10A5E000002FA2EB010043E8000494F0000FF6D125
:10A5F00010BD0121FFF7CDBF13DF70470023D3F853
:10A60000F80F421C04D14FF010235869431C01D0AD
:10A61000FFF7F2BF042070470148FFF7EDBF00BF0E
:10A620000090010001600B6843604A68934204BFD8
:10A63000002343607047436843B1026891680B444C
:10A6400043605268934204BF002343607047000098
:10A6500070B5064E0546002456F8043B0BB128465B
:10A6600098470134042CF7D170BD00BF7426002038
:10A670004388033300EB830399420BD382884FF660
:10A68000FF739A4208D0038833B18068431C584254
:10A690005841704702207047012070470B4A0C490F
:10A6A0005388142000FB0311CB6833B90420496898
:10A6B00010700122074800F092BE0749052313706D
:10A6C00002238B80012209680023F3E78C260020F7
:10A6D000A4260020942500205827002007B5002339
:10A6E00005490093054A09680548082300F049FE1A
:10A6F00003B05DF804FB00BF58270020EC630200A4
:10A700009425002007B5002301460093034A04481E
:10A71000082300F036FE03B05DF804FBE46302009A
:10A720009425002013B500230C4600930146084AE7
:10A730000848042300F025FE38B9074B142101FB1B
:10A74000043101230B7402B010BD48F20D60FAE72A
:10A75000E063020094250020A426002037B50A48B3
:10A760000A4B42689C881968538803250333057097
:10A770009BB2002000909B0001EB8401044800F094
:10A7800000FE03B030BD00BF8C26002058270020FB
:10A790009425002010B501460448FFF77AFE1C22DC
:10A7A0000446002108F0B8F9204610BD44270020D7
:10A7B00068B10268084B9A4209D14068074B984239
:10A7C00007D00133984214BF0320012070470320B3
:10A7D00070470020704700BFDEC0ADDEFE011EF1F5
:10A7E000033083B240F2FE32934230B50FD80B4CA7
:10A7F000207878B9228965892A441A4492B2B2F540
:10A80000806F07D8088062891344638130BD48F2A5
:10A810000860FBE748F20660F8E700BFA4260020C6
:10A820002DE9F0410D460223154F2B80164600F509
:10A83000805100F108044FF001088C420ED22368C9
:10A8400001330BD02046FFF713FF48B10EB186F855
:10A850000080022809D14FF480632B80BDE8F0818D
:10A86000A3683A68934200D93B602B88628803331F
:10A8700013442B806388033304EB8304DDE700BFBC
:10A880009C26002038B5144B14220D4602FB0033E1
:10A890005C682B6804F58051A3B15C88033403EB3A
:10A8A00084048C4215D22368013312D02046FFF76E
:10A8B000DFFE012808D002280BD00028F1D12C603F
:10A8C000012038BD0834ECE76388033304EB8304CC
:10A8D000E7E70020F5E700BFA426002073B5426833
:10A8E00004460D461AB31E4BD9688A421FD31B6912
:10A8F0009A421CD812F0030319D11A490089098918
:10A90000884214D120689168884210D1164949685C
:10A910008A4209D901F580518A4205D22B80B3FAC7
:10A9200083F0400902B070BD48F20963F7E70026E2
:10A930002E800196288801A9FFF7A4FF30B92B8843
:10A9400001339BB22B80002BF3D0EBE7019B2268F5
:10A9500099689142EED16360024B1B892381E1E744
:10A96000942500208C260020A42600202DE9F0410B
:10A970001C461B4B1B7806460F46154653B362B365
:10A980005CB3DFF86080A38813B148F209601FE070
:10A9900098F800302BB9A0882146FFF773FF20B943
:10A9A0002060A3880133A380EDE723681EB1998856
:10A9B00032889142EFD11FB119883A889142EAD189
:10A9C0009B682B6023686B60074B1B892B810020E1
:10A9D000BDE8F08148F20160FAE748F20460F7E769
:10A9E00084260020A42600208C26002008B5074BD2
:10A9F0005888191DFFF746FF18B1BDE80840FFF75A
:10AA0000ADBEBDE80840FFF749BE00BF8C26002060
:10AA10002DE9F047994FDFF8688288B006463B6819
:10AA200023B998484146FFF76EFD38603D682978A4
:10AA30004B1E052B07D8DFE813F0200065006500EA
:10AA4000F800F800520148F20E641422002103A815
:10AA500008F062F841F61D539C4208BF00243B6891
:10AA600004941A78023A042A00F2D681DFE812F040
:10AA7000B701C301E501ED01F4012EB1824B0022C3
:10AA80005A604FF40644E0E72B79032B0AD8DFE83D
:10AA900003F0020F1B2601232B71FFF71FFE002876
:10AAA00000F0BD80784B00225A6048F20D64CCE77C
:10AAB000764B1A78022A4FF0000240F0D181586894
:10AAC0001A70FFF71FFEEAE771497248002302225D
:10AAD0002B718A800968012200F081FCDFE76E4B50
:10AAE0006A4C5B886A4A14214B43E11800262E7198
:10AAF0004D6810681560958848600D810221E65404
:10AB00009180DEE7B5F814A0AA7DDFF880911423C8
:10AB1000AEB1022A06D903FB0A93EA8819890332E7
:10AB20000A441A81142303FB0A99EB88B9F80A2016
:10AB3000C3F57F43FD331344A9F80A30A1E703FBB3
:10AB40000A9318895C6804EB8004062A6AD8DFE857
:10AB500002F0284F37451E5B040041F61D54AB7DC3
:10AB6000022B07D9142202FB0A92EB8811890333C6
:10AB70000B441381142303FB0A99EB88B9F80A20CC
:10AB8000C3F57F43FD331344A9F80A305DE743481A
:10AB9000434900234360AB690360FFF79FFE002831
:10ABA0005AD00223AB75002300930423EA182146F0
:10ABB000384800F0E6FB002831D048F20D64CEE7BB
:10ABC0002B69002B14BF03230123AB7500230093D3
:10ABD00005F10C02042304F10801E9E70123AB7538
:10ABE0000022EB8800922A699B0004F10C01DFE748
:10ABF00003290CBF05230623AB7500230093042310
:10AC000005F10802E118D3E70623AB75244B198838
:10AC1000224B5868FFF786FD044600289FD108B0F4
:10AC2000BDE8F08748F20E6499E7002E7FF429AF63
:10AC30002B79012B36D0022B48D0002B7FF403AFA9
:10AC400002232B71CDE904660DF10A01EB68039331
:10AC500003A8FFF743FE10B948F20964F5E604982B
:10AC6000BDF80A108388EB8003882B81FFF75AFD1B
:10AC70000446002C7FF4E9AED1E700BFA0260020F7
:10AC8000982600204427002084260020A4260020A7
:10AC900058270020942500208C26002068260020BC
:10ACA00064270020DFF8D09103AA4B463146A81D47
:10ACB000FFF75CFE044660B9B9F804100498FFF78A
:10ACC00031FD044648F209639C42D2D141F61D543D
:10ACD000BBE608223146484607F01EFFF2E7002E89
:10ACE0007FF4CFAE654BDA7AB2B1DE721A78013AF0
:10ACF000062A3FF6A8AE01A151F822F06BAE010082
:10AD0000B1AD0100B7AD0100BDAD010047AA010022
:10AD1000C3AD0100D5AD01001A78072AE6D801A11C
:10AD200051F822F045AD0100EDAC0100EDAC0100A1
:10AD300061AD010075AD010099AD010099AD010053
:10AD40005DAD01001A8901321A8100225A80DA723F
:10AD50004B4A1278B2FA82F252099A72012207E043
:10AD6000484958688A884088033202448A8002220F
:10AD70001A70BBE75C88424A4249142505FB04224D
:10AD80000868546850608888108102200C608880B0
:10AD9000002111740622EBE70722E9E73849002277
:10ADA0009A72CA68002A63D1097C002960D05A804F
:10ADB000FFF71CFE5CE7FFF7D1FC59E7FFF76EFCDD
:10ADC00056E75A882E4B142101FB02335868FFF7CF
:10ADD00099FC4DE700225A60FFF780FC48E701220A
:10ADE0008DF80C201A89ADF818209A88ADF81A2031
:10ADF000DB68059310E002228DF80C201A89ADF86B
:10AE000018209A88ADF81A20DA6805929B7D9A1F5F
:10AE1000534253418DF81C3003A8FFF719FC00265C
:10AE2000414619483E60FFF799FB18480121FFF79A
:10AE3000D4FB00287FF4F3ADF1E603228DF80C205B
:10AE4000DA88ADF818201A89D0E704228DF80C2092
:10AE5000DB88ADF81830DFE705238DF80C30DBE731
:10AE60000B4B012119705A6030E79A7A002A95D16C
:10AE700000221A705A80F6E7682700208C260020EE
:10AE8000A426002058270020442700205427002013
:10AE9000842600204068FFF7BBBD000008B50548C8
:10AEA0000121FFF782FB18B9BDE80840FFF7B0BDEC
:10AEB00008BD00BF542700202DE9F3419846364BCA
:10AEC0001B7806460D46002B5AD000295BD0098816
:10AED0004FF6FF73994259D06B88002B56D06B68A0
:10AEE0009B0756D14AB92F890DF102013846FFF769
:10AEF00077FC30B102B0BDE8F08113885788ADF817
:10AF0000023001A8FFF746FC044660B9BDF80220F4
:10AF1000224B142101FB023358890338C01B58818E
:10AF200048F20760E6E780F8008000238375BDF8EB
:10AF3000023083826B68036101211948FFF741FBEE
:10AF4000E0602B8823816B88A380B8F1030F04BFD6
:10AF50000423A375E78004BF3368A361002511486B
:10AF6000658101A9FFF7BFFA36B17560E368336008
:10AF70000D4BB5721B893381FFF790FF0020B9E7B5
:10AF800048F20160B6E748F20460B3E748F20360B4
:10AF9000B0E748F20260ADE784260020A426002036
:10AFA0009C260020442700208C26002008B503465C
:10AFB00007480268042A08D00168064A42F821308E
:10AFC0000121FFF7FEFA002008BD48F20B60FBE705
:10AFD00060270020742600202DE9F04FDFF804825E
:10AFE00089B01422002103A807F096FD98F80030DC
:10AFF00003F0FF0200923BB103A8FFF729FB0027F3
:10B00000384609B0BDE8F08F08F10400FFF7F1FA07
:10B010000028F4D1009BDFF8D0A1D3F8F83F581CEA
:10B0200008BF4FF010234FF0805208BF5B691269D0
:10B03000591C04BF30235343CAF810306B49A3F5A1
:10B04000005300225046CAF80C3000F08EF9074633
:10B050000028D5D11C2366496648DFF89CB18C22B4
:10B06000FFF7E2F90223B9463D4601933C46DAF880
:10B070000C604E443046FFF79BFB012867D0032845
:10B0800017D000283DD15D494FF0140C0CFB04FC97
:10B0900001EB0C0201F80C0056600CF110020CF1EF
:10B0A000080C0A4430466144FFF7BAFB45F002053C
:10B0B0004AE03268531C02D0514B9A4239D1321DBA
:10B0C00006F580511068013033D104329142F9D134
:10B0D000DBF800203AB902220123CBF80060ABF87C
:10B0E000042000930BE014226243444B0220991881
:10B0F0009854444A4E60548001340881A4B245F00B
:10B10000010509F58059B9F5005FB0D1019B012B0C
:10B1100098BF0025EDB2022D03D0062D36D0002DAC
:10B120003ED1002388F8003048F20A67C8F804309E
:10B1300066E7019B31495A1E93B214226243881874
:10B1400001934660032088540134A4B2D9E7009BE0
:10B150006BB12A4B14226243991802209854DBF8F1
:10B1600000204A60274A088154800134A4B200229A
:10B170002549CBF800603046FFF752FBBBF80420AE
:10B18000022A0CBF042208221543BAE7012388F8DB
:10B19000003003A80023C8F80430FFF759FA2FE75E
:10B1A00002A8FFF7F7FAC8B10123013D03700A2D89
:10B1B00009D8DFE805F006080608070807080F1198
:10B1C0000F000023037102A90A48FFF78CF9FFF76B
:10B1D00065FE15E70323F5E70223F3E748F2076767
:10B1E0000EE700BF842600209425002000640200A2
:10B1F000B82600204427002058270020A42600203D
:10B20000DEC0ADDE8C2600205C27002073B50D4625
:10B210000446C8B1C1B10DF10601FFF75FFBB0B143
:10B22000BDF806300B486668142202FB03000121BA
:10B230000C30FFF7C6F92E6063680C336B60012396
:10B24000A372002002B070BD48F20460FAE748F231
:10B250000960F7E7A426002013B50446A8B10DF154
:10B260000601FFF73BFB98B1BDF806200B4B1421FC
:10B2700001FB0233DA6872B1A27A62B1DA680020A7
:10B28000013ADA60A07202B010BD48F20460FAE739
:10B2900048F20960F7E748F20560F4E7A4260020C9
:10B2A00002230022FFF708BE18B103230022FFF794
:10B2B00003BE48F20460704737B5104B1B78054653
:10B2C0009BB1A8B101A8FFF765FAA0B1042300243F
:10B2D000037004712B68C36001A90948FFF703F9E3
:10B2E000FFF7DCFD204603B030BD48F20160FAE70D
:10B2F00048F20460F7E748F20760F4E7842600208C
:10B300004427002007B50F4B1B78A3B101A8FFF716
:10B3100041FA98B10623037001A90B48FFF7E3F83F
:10B320000A4B1A780AB10122DA72FFF7B7FD002042
:10B3300003B05DF804FB48F20160F9E748F20760EA
:10B34000F6E700BF84260020442700208C2600203A
:10B3500007B5ADF80600ADF804100DF1060001A91F
:10B36000FFF704FB03B05DF804FB0B4610B4114675
:10B3700020B11BB103601B6810BC18470E2010BC25
:10B3800070472DE9F04108B302B3D0F800E0BEF1F8
:10B39000000F1ED0FBB14768D7F80480B3FBF8F765
:10B3A00008FB1737BFB942EA010C1CF0030F14D198
:10B3B000C768B94211D305694C1E1C44AC420CD875
:10B3C000DEF80C40A446BDE8F04160470E20BDE821
:10B3D000F0810820FBE70920F9E71020F7E7F0B536
:10B3E000D8B1D0F800C0BCF1000F18D0CAB147687E
:10B3F000D7F800E00EF1FF370F4214D1C768B94209
:10B4000011D305694C1E0EFB0244AC420BD8DCF88C
:10B410001040A446BDE8F04060470E20F0BD082073
:10B42000FCE70920FAE71020F8E729DF704728DF5A
:10B43000704770B50668B36886B004460D4673B1B0
:10B4400014220021684607F067FBA368059323795F
:10B45000019533B1012B0ED0B3686846984706B00A
:10B4600070BD01238DF8003023690293E3680393D4
:10B4700063690493F0E702238DF80030E3681B034F
:10B480000293F5E70846704700207047024B187A90
:10B49000003818BF012070470C280020034B187A91
:10B4A0000122B0FA80F05A74400970470C2800203D
:10B4B00008B510461A4607F021FB002008BD000021
:10B4C00008B514220021044807F026FB0348FEF7C4
:10B4D000BEFF002008BD00BF0C280020FC27002074
:10B4E00010B5094C094B43602046FFF782F840B97C
:10B4F00000F01AFF064920741C2306488C22FEF730
:10B5000093FF002010BD00BF0C280020F463020050
:10B5100070270020FC27002038B5234D234C2B7AC0
:10B520003BB923492348FEF7EEFF206008B9686065
:10B5300038BD022324682B72237973B1012B24D0E8
:10B5400020460321FFF775FF00232B726B6018491B
:10B550001848BDE83840FFF701B8D4E90523D21AEE
:10B56000B2F5805FD4E9031028BF4FF480529208EF
:10B57000012A38BF012219441844FFF756FF50B181
:10B580001128DDD101232B72D2E7D4E9030318443B
:10B59000FFF74DFFF3E72B7C002BC9D1BDE8384006
:10B5A000022000F009B800BF0C2800202428002049
:10B5B00020280020FC27002038B5234C237A002BBC
:10B5C00041D0022B09D1032830D0204B00221B6828
:10B5D000E2601A793AB1012A22D0637C7BBBBDE8D4
:10B5E0003840FFF799BFD3E905128D1AB5F5805F92
:10B5F00094BF521902F580529A619142EDD102280E
:10B600004FF0000308BF19462372104B18BF0D21DD
:10B610001868FFF70EFF0E490E48FEF79FFFDCE7A4
:10B620001A6901321A615B699A42E7E7E3680133FC
:10B63000082B01D8E360D0E70023E360DFE7BDE833
:10B64000384000F061BE38BD0C28002024280020BE
:10B6500020280020FC270020831E012B01D8FFF7A3
:10B66000ABBF704700F0FD03012B08D1044B002253
:10B670005A74421E504250411874FFF74DBF704734
:10B680000C28002010B5064C201DFEF7B2FF28B98B
:10B69000637C1BB9BDE81040FFF73EBF10BD00BF83
:10B6A0000C2800202DE9F34180460D460F4801A9E2
:10B6B00016461F46FEF7EDFE0446A8B11C220021E7
:10B6C00007F02AFA2D0B0123237101A90748C4F8BA
:10B6D0000080A760E5606661FEF705FFFFF7D2FF17
:10B6E000002002B0BDE8F0810420FAE7FC2700202A
:10B6F0002DE9F74381468846104801A917461E46A2
:10B70000FEF7C7FE0446B0B11C22002107F004FA80
:10B7100000250A9BA36001A9C4E9037807482571A5
:10B72000C4F800906661FEF7DEFEFFF7ABFF284627
:10B7300003B0BDE8F0830420FAE700BFFC27002037
:10B7400033DF704741DF704738B5154C154D6368DE
:10B7500028787BB90238012813D8BFF34F8F1249DC
:10B76000124BCA6802F4E0621343CB60BFF34F8F01
:10B7700000BFFDE71B68984788B12046FEF75BFFD6
:10B78000E5E700F0D1FD08B1FFF7DAFF4FF08043A5
:10B790000122C3F80025BFF34F8F20BFFDE738BD5E
:10B7A000282800203028002000ED00E00400FA05E1
:10B7B000064B10B500241C70054B1C60BFF35F8F57
:10B7C00004490548FEF72EFF204610BD3128002011
:10B7D00034280020206402002828002008B500F04A
:10B7E000A3FD18B1BDE80840FFF7ACBF20BF40BFC4
:10B7F00020BF08BD38B5114D044601212846FEF78B
:10B80000BDFEBFF35F8F38B9042C0AD00C4B1A78F9
:10B810001AB1BFF35F8F286038BD0A4A1470012245
:10B820001A700021084A084600F034F808B100F008
:10B830003BFCBFF35F8F00232B60EDE73428002033
:10B84000312800203028002049B701004B1C30B5BA
:10B85000DB00044612F003009BB20DD1074D2A60B5
:10B860001A44074B1A60074B1870074B1870074BA8
:10B870001C80074B198030BD0720FCE740280020C2
:10B880003C28002038280020482800204428002098
:10B89000462800202DE9F347DFF8B080B8F80030E3
:10B8A0008B4206460D4617464CD300240DF1070087
:10B8B0008DF8074000F01EFC254B264A26481B78D1
:10B8C000008892F800C084455FFA8CF138BF4C1CA8
:10B8D000DBB238BFE4B2A3422ED014781178CBB2D9
:10B8E000884286BF0133DBB2002313709DF8070046
:10B8F00000F024FC4FF6FF739C4225D0DFF85C90EB
:10B90000D9F800204FEAC40A42F8347002EBC403AD
:10B91000AEB1A5B1124BB8F800001B682A4604FB73
:10B920000030314607F0EAF8D9F8003053440020DF
:10B930009D8002B0BDE8F0874FF6FF74D6E7002087
:10B940009880F6E70920F4E70420F2E74428002075
:10B9500048280020382800204628002040280020C1
:10B960003C28002070B5104C104D22782B789A425C
:10B9700000D170BD0E480F4A2378126806880E4821
:10B9800002EBC301006852F83320898803FB0600EC
:10B9900090470A4922780988D3B2914286BF013381
:10B9A000DBB200232370E0E748280020382800207D
:10B9B00044280020402800203C2800204628002061
:10B9C00070B5446806460D46206818B1B36829462C
:10B9D000984718B923682B60256070BD2468F3E789
:10B9E0004368186808B102681A60704743681868AD
:10B9F00070474368186800B97047884203D10268ED
:10BA00001A600120704703460068F4E710B5D0E9DA
:10BA10000243D1E90202A04272EB03032CBF0120D2
:10BA2000002010BD08B50A4800F01DFB094AD2E904
:10BA30000031C018084BD3E9002341F100019042C6
:10BA400071EB030303D210F1807041F1000108BDD6
:10BA5000D822002050280020C828002037B50546ED
:10BA60000C460A4801A9FEF714FD60B10570446058
:10BA700001A90648FEF737FD18B1054800F0F8FAAD
:10BA8000002003B030BD0420FBE700BFB428002035
:10BA9000D822002073B5294B1E7804461EB9002613
:10BAA000304602B070BD0028F9D0FFF7BBFFD4E9E3
:10BAB00002239042994139D300230DF107008DF8FC
:10BAC000073000F017FB23692BB94FF0FF324FF01E
:10BAD000FF33C4E902239DF8070000F02FFBD4E9EF
:10BAE0000530984700250DF107008DF8075000F04C
:10BAF00001FB2369C3B1D4E90212B2F1FF3F08BFD1
:10BB0000B1F1FF3F05D05B1842F10002C4E90232F7
:10BB100035469DF8070000F011FB002DBFD0084806
:10BB20002146FFF74DFFBBE71D46F2E7B3F1FF3FAC
:10BB300008BFB2F1FF3FB2D0F1E700BF58280020A4
:10BB40003064020013B5114B1149186801900823A5
:10BB500010485822FEF768FC044698B90E4A0F4870
:10BB600001A900F079F9044660B90C48012100F000
:10BB70005BFA01230A4A0948194600F0B7F9094B54
:10BB800001221A70204602B010BD00BF2C640200D2
:10BB90005C280020B428002085BC0100D8220020A9
:10BBA000FFFF7F005828002030B56AB103684FF0CE
:10BBB000FF344FF0FF355A614A1E5142C3E9024536
:10BBC00051411961002030BD0720FCE7F7B504465C
:10BBD00000250DF1070017460E468DF8075000F0BE
:10BBE00089FAD4E90223B3F1FF3F08BFB2F1FF3F66
:10BBF00007D1FFF717FF301841F10001C4E9020136
:10BC000001259DF8070000F099FA55B12369A76155
:10BC100003B126612146002003B0BDE8F040FFF7E4
:10BC20001DBF284603B0F0BD37B5054600240DF111
:10BC300007008DF8074000F05DFAD5E90223B3F163
:10BC4000FF3F08BFB2F1FF3F06D04FF0FF324FF089
:10BC5000FF33C5E9022301249DF8070000F06EFAC6
:10BC600034B12946012003B0BDE83040FFF7F6BEED
:10BC7000204603B030BD0000014800F0F4B900BF19
:10BC8000D82200202DE9F743064600F0D6F940B14E
:10BC9000634AD2E9003113F1807341F10001C2E936
:10BCA00000310021304600F0D8F938B15D4C2368EE
:10BCB00023B12068FFF7EEFE002323600121304608
:10BCC00000F0CBF920B1FFF7ADFE574BC3E90001FF
:10BCD0005648544F01A9FEF716FC4FF0FF344FF0C1
:10BCE000FF35A0B9DFF848814E4D4046FFF77EFE94
:10BCF000002800F08680D0E90223B3F1FF3F08BF9F
:10BD0000B2F1FF3F33D14046FFF76AFEEDE703781B
:10BD1000012B21D0022B09D1DFF814814046FFF717
:10BD20005FFE002877D0C0E90245F7E75BB94168BC
:10BD3000D1E90223B3F1FF3F08BFB2F1FF3F02D0C8
:10BD40003B48FFF73DFE01A93848FEF707FC01A973
:10BD50003648FEF7D8FBC4E741683B68994202D1F8
:10BD600000233B60EFE73248FFF743FEEBE729682B
:10BD700091B12968D1E9020182428B412FD22B680F
:10BD8000D3E90223B3F1FF3F08BFB2F1FF3F03D075
:10BD900029684046FFF714FE4046FFF721FED0E930
:10BDA00002490746FFF73EFE201A69EB0109012808
:10BDB00079F1000318DBB0F5350F13D3FFF75CFF03
:10BDC0001C4A02441C484FF49603002100F0B2F8CC
:10BDD00090B92B6813B9304600F080F82F6003B09B
:10BDE000BDE8F0832246EDE71348002100F02AF970
:10BDF0003846FFF74FFE01E00D28F9D000232B60F5
:10BE000073E7084B1B68002BE9D1304603B0BDE84F
:10BE1000F04300F067B8094B01221A7093E700BFA6
:10BE200050280020D0280020C8280020B428002056
:10BE300030640200FFFFB400D82200205828002000
:10BE40000346405882B028B100225A505B580193F3
:10BE5000019B012002B0704710B51C4C437944F897
:10BE600023201B4C04EBC3031B796BBB03680A88BC
:10BE7000C3F8082590F904308A78002B4FEA421263
:10BE8000ADBF03F1604303F00F03124903F56143B3
:10BE9000B9BFD2B2CA54D2B283F8002390F90430A9
:10BEA000002B08DB0122590903F01F0302FA03F3F8
:10BEB000094A42F82130437904EBC302012144F8D6
:10BEC00033001171002010BD0820FCE7DC280020A1
:10BED000D428002014ED00E000E100E00368012216
:10BEE0001A607047036801225A607047F7B504680A
:10BEF0004FF480358D40C4F808530468C4F84853A3
:10BF000001F15004A4000668A4B200273751345947
:10BF10000194019C046801F5A87122F07F4244F865
:10BF200021200268C2F8445313B10368C3F80453D4
:10BF300003B0F0BD2DE9F34799464FF4803803680C
:10BF400008FA01F8C3F848830368C3F8088322F0AD
:10BF50007F4502680E46D2F8041502EB860206F110
:10BF60005007D2F84035C2F84015BF000268BFB292
:10BF70004FF0000A42F807A05B1AD259009223F052
:10BF80007F43012B009A04460BD1264B4FF480606F
:10BF900043F001039847236843F807A0DB59019356
:10BFA000019B2368D3F80475C3F84483EB1B23F08B
:10BFB0007F43012B06F5A876236819D1013543F894
:10BFC0002650184B4FF4806043F0010398472368D4
:10BFD000D3F804359F4209D12368C3F8448323680A
:10BFE0000020C3F8048302B0BDE8F0870D20FAE713
:10BFF00043F826502068D0F804156A1A013AC9F1AE
:10C00000FF1322F07F4203F57F439342EED3002AD1
:10C01000E2D1013540F826502368D3F8043599421F
:10C02000D9E700BF4064020002680223C2F844332B
:10C0300011B10268C2F80433704700684FF482718E
:10C04000FFF7FEBE4FF4803303FA01F10368C3F833
:10C0500048130368C3F8081370475031890000681B
:10C0600089B2FFF7EDBE0368D3F8040570470000FE
:10C0700090F90430002B09DB5A09012103F01F035A
:10C0800001FA03F34032024941F82230704700BF01
:10C0900000E100E0024B034A1B681068184700BF2C
:10C0A000DC280020D42800201FB50021039001AA1D
:10C0B00044F20100CDE9011100F004F805B05DF88B
:10C0C00004FB000072B6094BD3F8F020D20700D56C
:10C0D00000BEBFF34F8FD968054A01F4E0610A43FF
:10C0E000DA60BFF34F8F00BFFDE700BF00ED00E057
:10C0F0000400FA0570B5EFF3108672B60C4A946826
:10C1000001239CB993600B4B0B4DD3F88010294051
:10C110001160C3F88050D3F8841051604FF0FF32A3
:10C12000C3F88420047006B962B670BD0370FAE7E4
:10C13000E028002000E100E0FC06FFBD10B5084B40
:10C140009A685AB150B9EFF3108172B6054A1C686B
:10C1500014605C685460986001B962B610BD00BF9D
:10C16000E028002000E100E010DF704711DF704799
:10C1700013B5044609496846FEF754FA019808B910
:10C1800002B010BDD0E900312046984718B168468A
:10C19000FEF751FAF2E71120F2E700BF4C6402000B
:10C1A00013B5044607496846FEF73CFA019B0BB9F4
:10C1B00002B010BD2046D3E9002190476846FEF743
:10C1C0003AFAF3E764640200084B9A6822B11A68ED
:10C1D00022F480021A607047054B4FF48002C3F8C6
:10C1E0008020BFF34F8FBFF36F8F7047E028002090
:10C1F00000E100E00B4991F816335A09EC23134192
:10C20000DB0706D5084B9A683AB94FF480030B60F8
:10C21000704742F20200FFF747BF1A6842F48002FB
:10C220001A60704700E100E0E0280020F7B5194FE0
:10C230003C7864BB184E012520463570FFF798FF07
:10C24000112821D02046FFF7ABFF144B8DF8034097
:10C25000186801900DF10300FFF74CFF104901A889
:10C26000FFF782FF0446B0FA80F0400938709DF86D
:10C270000300FFF763FF3CB90A4B34701C70FFF7F3
:10C28000B9FF2846FFF78CFF204603B0F0BD082415
:10C29000FAE700BFED280020EC28002046640200E9
:10C2A000C5C00100EE280020F7B5154F3B781BB341
:10C2B000144E01203070FFF75BFF11284FF000058E
:10C2C0001CD00220FFF76CFF0DF107008DF807501E
:10C2D000FFF710FFFFF74AFF04469DF807003D7087
:10C2E000FFF72CFF2CB903203470FFF76DFFFFF729
:10C2F00057FF204603B0F0BD0824FAE72C46F8E7C4
:10C30000ED280020EC280020054B1B7833B1054BAD
:10C310001B780BB1FFF7C8BFFFF788BF0820704735
:10C32000EC280020ED280020014B1878704700BF52
:10C33000ED28002007B508496846FEF773F9019B10
:10C3400013B903B05DF804FBD3E9002090476846B9
:10C35000FEF771F9F3E700BF58640200FFF7EABF88
:10C3600060DF704769DF704761DF704730B5134D9C
:10C37000ADF5017D4FF4FA740DF1020103A8ADF89B
:10C380000240FFF7F1FF70B9294601A8FEF74AF90C
:10C39000029B002BF0D003A8D3E90021904701A80D
:10C3A000FEF749F9F4E7052805D00DF5017DBDE854
:10C3B0003040FFF779BE0DF5017D30BD706402009D
:10C3C000024B1B780BB1FFF7D1BF7047EF2800205D
:10C3D0007FB505460C4600295BD02F4B0B600C2225
:10C3E000002101A806F098FB012606232268ADF87B
:10C3F000083001A920208DF804508DF80660FFF761
:10C40000B1FF0C22002101A806F086FB22688DF8FE
:10C41000056001A94020FFF7A5FF0C22002101A81B
:10C4200006F07AFBF7232268ADF8063001A9232035
:10C430008DF80450FFF796FF0C22002101A806F0AA
:10C440006BFB022322688DF8043001A93046FFF708
:10C4500089FF0C22002101A806F05EFB4FF4B063B7
:10C460002268019301A9A120FFF77CFF0C22002183
:10C4700001A806F051FB9DF8043022686FF3000319
:10C4800001A9A0208DF80430FFF76CFF002004B054
:10C4900070BD0E20FBE700BFD822002008B5FFF7D3
:10C4A0005FFF10B9014B01221A7008BDEF28002070
:10C4B0004BDF70471FB50E4C01A8FFF7F9FF70B9AD
:10C4C000214602A8FEF7AEF8039B002BF4D001989A
:10C4D000D3E90021904702A8FEF7ADF8F4E705285C
:10C4E00004D004B0BDE81040FFF7DEBD04B010BDBD
:10C4F0007C64020000F18040002382B00360036886
:10C500000193019B02B07047044B0246187918B999
:10C510001A6001221A71704785207047F0280020A8
:10C52000074B1A68D20704D4C02283F800230122E3
:10C530001A604FF080430122C3F81825704700BFEE
:10C5400000E100E04FF0804208B50223C2F8083352
:10C550004FF48270FFF7CEFF0123D360D2F8183476
:10C56000DB03FBD408BD000010B54FF08042D2F8C9
:10C57000003153B14FF48070FFF7BCFF0123C2F8C4
:10C5800008330B4B00201B6898474FF08042D2F8CD
:10C59000043163B14FF48270FFF7ACFF0223C2F89D
:10C5A0000833034BBDE810401B680120184710BD3D
:10C5B000F028002000F1804000F5C040002382B048
:10C5C000036003680193019B02B07047800000F193
:10C5D000A040D0F8002722F44032C0F80027D0F85D
:10C5E000003743EA0143C0F800377047054B4FF06E
:10C5F000FF32072843F8202084BFC01880F8482065
:10C60000704700BFF8280020C208054900F0070065
:10C6100001238340885C20EA03008854704700BFF0
:10C620004C29002010B51A4C94F858306BBB4FF0D1
:10C63000FF3222FA03F1C90748BFE11803F10103F1
:10C6400048BF81F83020202BF3D10021C8B201313E
:10C65000FFF7CCFF0C29F9D1042200210D4806F088
:10C660005BFA0D4BC02283F8062340221A604FF478
:10C67000BE70FFF79FFF094B4FF00042C3F8042341
:10C68000012384F85830002010BD0820FCE700BFCB
:10C69000F82800204C29002000E100E00060004064
:10C6A00038B5164C2518014695F83000072809D8EA
:10C6B000FFF79CFF95F93030114A03F5A273002073
:10C6C00042F823006318FF2204EBD10483F83020E2
:10C6D00094F8542001F00700012383401A420BD044
:10C6E0004FF0A04301F5E072022043F82200084613
:10C6F000BDE83840FFF788BF38BD00BFF8280020EC
:10C7000000600040F0B5394E331893F93030002BFB
:10C7100069DA8D78C5F34005002D0BBF082300238F
:10C720000C240824A34201D10420F0BD56F8237044
:10C73000013743D137185CB246F8232087F83040E0
:10C7400015B9F21882F848008A78550716D4D70729
:10C7500036D5820002F1A042D2F8005725F002053A
:10C76000C2F80057224FC50800F0070C012202FA58
:10C770000CF217F805C042EA0C027A558A780D7857
:10C7800012F0020225D09B0003F1804303F5C04361
:10C790000002D3F8102522F4473222F44072C3F885
:10C7A00010252D04D3F8102500F4F85005F4403579
:10C7B00028431043C3F810050020B6E70133B1E762
:10C7C0004D7800F5E0724FF0A047AD0047F82250D9
:10C7D000C8E7083C46FA84F494F8500040EA85150E
:10C7E00084F85050E8E708209FE700BFF8280020B1
:10C7F0004C29002038B5204C251895F93020072AFF
:10C8000018DD083A44FA82F494F850309B09032B5F
:10C810000BD14FF0A043D3F81015C14001F0010136
:10C820000231BDE83840FFF7D1BE012B0CBF022119
:10C830000321F6E7D3B2072B1DD8930003F1804301
:10C8400003F5C043D3F8100540F00100C3F810050C
:10C8500002F1400040B2800080B2FFF7ABFE51B160
:10C8600095F9303054F823302BB1012303FA02F24A
:10C87000024BC3F8042338BDF828002000600040B4
:10C880000E4B034493F93020072A02DD0021FFF705
:10C890009DBED3B2072B10D8930003F1804303F55C
:10C8A000C043D3F8101521F00101C3F8101501237E
:10C8B00003FA02F2024BC3F808237047F82800205D
:10C8C0000060004038B5194D0446FFF7D9FF2A191A
:10C8D00092F9303092F83020072A9FBF144A03F5AE
:10C8E000A273002142F8231005EBD40304F00701E2
:10C8F00093F8542001238B401A4209D004F5E073C9
:10C900004FF0A042022142F823102046FFF77CFEA0
:10C910002B1993F93000002802DBC0B2FFF766FE46
:10C920002C44FF2384F8303038BD00BFF8280020A5
:10C930000060004070B50F4E00244FF0FF3525FA1F
:10C9400004F3D90707D5331993F930309A1C0AD16B
:10C950002046FFF7A5FE0134202CF0D1054B002224
:10C9600083F8582070BD002BF5DB2046FFF7AAFFA7
:10C97000F1E700BFF82800202DE9F74F00244E4DC5
:10C9800001944FF48072012102F1804303F5C0430A
:10C9900090B21B68012B06D1D5F804330B4202D0AC
:10C9A000FFF708FE0C430432B2F5907F4FEA4101D5
:10C9B000EAD1414BD3F87C31012B0CD14FF4BE703E
:10C9C000FFF7F8FD4FF0A04344F00044D3F82025D2
:10C9D0000192C3F82025E3B2D3B1384F01260025D8
:10C9E000344210D0AB0003F1804303F5C043D3F8C9
:10C9F0001005D3F8101557F8253023B1C1F30141C4
:10CA0000C0F3042098470135082D4FEA4606E7D1C8
:10CA1000002C48DA294D4FF0A048294E4FF000096C
:10CA2000012716F9013B5A1C31D0C3F3C202083268
:10CA30006A44DCB212F8042C03F03F0A03F0070347
:10CA400007FA03F31A4222D00AF5E073504658F869
:10CA50002330C3F3014BBBF1020F0CBF03210221B2
:10CA6000FFF7B4FD07FA0AF3C8F8203505EB0A030F
:10CA700093F9303055F823304BB1A109032904D084
:10CA8000BBF1020F12D1012901D15046984709F19B
:10CA90000109B9F1040FC4D1D8F820350193C8F8C1
:10CAA0002035002BB9D103B0BDE8F08FBBF1030FE7
:10CAB000EDD10229E8E700BF00600040F82800201F
:10CAC0004829002037B5D0F818358A69DBB28DF8CF
:10CAD00007304B6A93423EBF4A699DF80740D454E1
:10CAE0004A6A91F82840531C4B6202323CB10C69EF
:10CAF000A2428C6938BF0A61944288BF8A610D697D
:10CB0000954205D9CB689B5CC0F81C3501200BE031
:10CB10008C69944202D991F82030F5E7AB42F5D305
:10CB2000A3422CBF0020012003B030BDF0B5057931
:10CB30005F4C2C266E43A71997F81CC0BCF1000F60
:10CB400040F0B380A2517B600B7B0F78012B4FF03C
:10CB5000A0464FF0010303FA07F394BFC6F80C3563
:10CB6000C6F808350B784FF0A04703F5E0730126AF
:10CB700047F823604B78FF2B1FBF9E40C7F80C651A
:10CB800003F5E0764FF0030C18BF47F826C08F7806
:10CB900008BF4FF0FF33FF2F1FBF07F5E07C4FF0BA
:10CBA000A0464FF0040E46F82CE0067991F802C03A
:10CBB0004FF02C0E0EFB064608BF4FF0FF3786F8ED
:10CBC0001FC091F803C0BCF1FF0F0DD0012606FA7B
:10CBD0000CF64FF0A04C4FF0030ECCF80865CE7861
:10CBE00006F5E0764CF826E0067991F803C04FF0A0
:10CBF0002C0E0EFB064686F81EC0066891F800C093
:10CC0000C6F808C5C6F80C35C6F810758B68C6F8A6
:10CC100024354B7B0F7B003B18BF0123022F3ED0F6
:10CC2000032F3FD0012F01D143F00203C6F8543542
:10CC300003794F794FF02C0C0CFB034383F82070E1
:10CC40000123C6F8003512B303680A791E0B43F3BB
:10CC50000733002BAEBF03F16043164B06F00F0104
:10CC60004FEA4212D2B2AABF03F561435A5483F885
:10CC7000002303681A0B43F30733002B07DB02F092
:10CC80001F0101228A405B090B4941F823202C2314
:10CC900003FB05440020012360772377F0BD43F0B8
:10CCA0000403C3E743F00603C0E70820F6E700BF2C
:10CCB0005429002014ED00E000E100E030B50179D6
:10CCC0001A4A2C234B43D35893B103681C0B43F3EC
:10CCD0000733002B0CDB04F01F055B090124AC407B
:10CCE0002033134D45F82340BFF34F8FBFF36F8FB1
:10CCF0002C2303FB01F40068145914B10424C0F878
:10CD0000084303FB0123DB7FFF2B1FBF03F5E07309
:10CD10004FF0A044022544F823500023C0F800350A
:10CD20002C2000FB0122137730BD00BF54290020C6
:10CD300000E100E02DE9F74390F80480404E2C23F9
:10CD400003FB08F31746F2180D46517F844600296D
:10CD500073D156F80390B9F1000F01D00123537736
:10CD600095E80F002C2404FB086404F10C0E8EE8F7
:10CD70000F00A27F0023FF2A84F828301FBF012361
:10CD800093404FF0A042C2F80C352C2347B103FB6F
:10CD90000866002373770627384603B0BDE8F083A2
:10CDA000DCF800400422C4F8082303FB0863C4F83D
:10CDB0000871D4F808215F620092009A6A688AB10B
:10CDC0002B681B78C4F81C356B68012B0DD92B68B8
:10CDD0005B78C4F81C35B9F1000F0FD00423C4F8F8
:10CDE0000433D9E793F82030ECE7EB68012BF2D954
:10CDF0002C2303FB086393F82030EAE72C2108FB7F
:10CE00000161D4F80831002BFBD0C4F80891D4F8A4
:10CE1000083101932046019BFFF754FE0028F0D112
:10CE20002C2303FB0866B27FFF2AB5D00123934071
:10CE30004FF0A042C2F80835AEE71127ACE700BFBB
:10CE40005429002007B54FF040200023C0F80831D6
:10CE5000D0F8083101930D49019BFFF733FE90B9DB
:10CE60008A7F0B48FF2A1FBF012393404FF0A04247
:10CE7000C2F8083500234B770B72D1E9003103B0BB
:10CE80005DF804EB184703B05DF804FB542900205B
:10CE90005C29002013B5084CD4F800314BB1074B86
:10CEA0001B6898470023C4F80031D4F8003101937F
:10CEB000019B02B010BD00BF00000140842900208A
:10CEC00070B5114B1960114B1C780546D4B9104E42
:10CED00001221A700378C6F80C3541684FF47A7253
:10CEE0000023C803490C09F0E5F8C6F804052B7ABD
:10CEF000084A5B01DBB282F810334FF480331360D1
:10CF0000204670BD0820FCE78429002081290020EC
:10CF10000000014000E100E0044B0122C3F80423BB
:10CF20001A60034B02221A70704700BF00000140D4
:10CF30008129002037B5054600240DF107008DF842
:10CF40000740FFF7D7F80C4B1A78072A11D8511C65
:10CF500019700A492A70D1F8080501239340034348
:10CF6000C1F808359DF80700FFF7E8F8204603B040
:10CF700030BD0424F6E700BF8029002000000140F6
:10CF8000034B044A00F5C07043F82020704700BFEF
:10CF9000000001403546526E38B5074C051E04F1BD
:10CFA000080318BF1C4623682BB11A6822605B680F
:10CFB00028469847F7E738BD9029002020B9054B4F
:10CFC00001225A70FFF7E8BF012802D1014A907090
:10CFD000F8E770478829002020B9034B01225A70D6
:10CFE000FFF7DABF704700BF8829002038B50E4C24
:10CFF0002378B3B90D486360A3602361E360FFF752
:10D0000083FA0546FFF790F908B9FFF789FA01237B
:10D010002370074BD3F800340BB10123A3702846CB
:10D0200038BD8525F5E700BF88290020BDCF010068
:10D030000000014037B50D4C00230DF107008DF8BD
:10D040000730FFF757F8E368013BE360E36833B963
:10D05000074BD3F8005415B9FFF774FAA5709DF883
:10D060000700FFF76BF803B030BD00BF8829002030
:10D0700000000140012813B50CD0032820D038B996
:10D08000134B0122C3F88020BFF34F8FBFF36F8F84
:10D0900002B010BD0F4C00230DF107008DF80730D2
:10D0A000FFF728F823780BB9FFF7A0FFE3689DF896
:10D0B00007000133E3600123A370FFF73FF8E7E7C0
:10D0C000FFF72EFA02B0BDE81040FFF7B3BF00BF74
:10D0D00000E100E0882900207FB503788DF8043056
:10D0E0004368029383688DF80C30C3680493036926
:10D0F000064A8DF81430064B01A853F8213052F837
:10D100002110984707B05DF804FB00BF9C29002060
:10D11000A429002030B41D46074C10F8043B44F805
:10D120002320064C44F82350054C002A18BF224601
:10D1300030BCFFF7FBBC00BFA42900209C290020C5
:10D14000D9D001000649074A074B9B1A03DD043B6F
:10D15000C858D050FBDC00F04DF8FCF775F8000023
:10D16000549C0200D8220020A8250020FEE7FEE7FC
:10D17000FEE7FEE7FEE7FEE7FEE7FEE7FEE7FEE787
:10D18000BFF34F8F0549064BCA6802F4E0621343B0
:10D19000CB60BFF34F8F00BFFDE700BF00ED00E0A5
:10D1A0000400FA054FF08053D3F83001082804D06A
:10D1B000A0F10E035842584170470120704700000B
:10D1C0004FF08053D3F83021082A06D1D3F83431F8
:10D1D000052B02D8024AD05C70470020704700BF80
:10D1E0008E640200024AD2F80034002BFBD0704754
:10D1F00000E0014010B54FF08053D3F830210E2AE3
:10D2000001BFD3F844324FF08042C3F34233C2F837
:10D210003C35FFF7C7FF40B14FF080430022C3F811
:10D220000C21C3F81021C3F83825FFF7BBFF0028F5
:10D2300046D04FF080526A4BD2F80414C3F8201540
:10D24000D2F80814C3F82415D2F80C14C3F8281522
:10D25000D2F81014C3F82C15D2F81414C3F83015F2
:10D26000D2F81814C3F83415D2F81C14C3F84015BA
:10D27000D2F82014C3F84415D2F82414C3F8481582
:10D28000D2F82814C3F84C15D2F82C14C3F8501552
:10D29000D2F83014C3F85415D2F83414C3F860151A
:10D2A000D2F83814C3F86415D2F83C14C3F86815E2
:10D2B000D2F84014C3F86C15D2F84424C3F8702592
:10D2C000FFF77EFF18B1474B474AC3F88C26FFF79C
:10D2D00077FF18B1454BFB22C3F81825FFF770FF05
:10D2E00070B14FF080414FF08053D1F8E42ED3F865
:10D2F000583222F00F0203F00F031343C1F8E43E4B
:10D30000FFF75EFF20B13A4B4FF40072C3F840269E
:10D31000FFF748FF48B14FF08043D3F80024D2070D
:10D3200044BF6FF00102C3F800244FF08053D3F8DC
:10D3300030310E2B01BF4FF08042D2F8E43E43F073
:10D340000F03C2F8E43E4FF08053D3F83021082A8F
:10D350000ED1D3F83431052B02D8264AD35C3BB129
:10D360004FF01023D3F808224FF08043C3F858251C
:10D370004FF01021D1F80032002B03DBD1F804323A
:10D38000002B17DA1C4901234FF01020C1F8043597
:10D390001224FFF727FFC0F80042FFF723FFC0F871
:10D3A0000442FFF71FFF0023C1F80435FFF71AFFFF
:10D3B000FFF7E6FED1F80C32DB070DD50E4801234E
:10D3C000C0F804350024FFF70DFFC1F80C42FFF749
:10D3D00009FFC0F80445E9E7084B094A1A6010BD87
:10D3E00000C00040005000404881030000F00040B1
:10D3F000009002408864020000E00140E02200202A
:10D400000090D0036DDF704776DF70477ADF70479A
:10D410007CDF70477FDF70478FDF7047B1DF704779
:10D420007047000008B505480321FCF751FC18B10E
:10D43000BDE80840FEF738BE08BD00BF5C2A0020EA
:10D4400010B50446FFF71CFA2046FFF73BFAFFF73A
:10D4500071FA00F0E7FDBDE81040FFF7E3BF000000
:10D4600007B50388212B1CD008D8112B15D0132BFE
:10D4700025D0102B0DD003B05DF804FB522B2CD01F
:10D48000562B01D03B2BF6D113218088FFF7BCFF30
:10D490001CE08288154B1A80EDE7144B4FF6FF72A3
:10D4A000F9E7002380888DF8043001A98DF8053054
:10D4B000FFF7B2FF0028DED0FEF7F6FDDBE70B48F2
:10D4C000002300881A468521FFF7A4FF0028D2D048
:10D4D00003B05DF804EBFEF7E7BD044800231A46ED
:10D4E00019460088FFF79AFFF0E700BF08230020E5
:10D4F000FEF7DABD034B04481968002201311960B8
:10D5000001F024BB0C230020542B0020074B4A8839
:10D510001B889A4208D10A8840F677239A4201BFB5
:10D520008B88034A033B9382704700BF0823002087
:10D53000542B0020032807D14FF08043A922C3F8C1
:10D5400020250020FEF756B97047000008B5037883
:10D550004BB9054B3B211888FFF756FF18B1BDE8C2
:10D560000840FEF7A1BD08BD0823002000B5014614
:10D570008DB0D0B92C2201A805F0CEFA4FF4C861C5
:10D5800042F6E0620123CDE9051209488DF8083022
:10D5900001A98DF80430FCF7D2FC064B1321188842
:10D5A000FFF732FF08B1FEF77FFD0DB05DF804FB19
:10D5B0005C2A002008230020014B1868704700BF38
:10D5C0000C23002038B5074D04462846FEF72CFBF7
:10D5D000054B1C6028460022BDE838404FF48041CE
:10D5E000FEF7F4BAE82200200C23002038B5074DDE
:10D5F000074C2B6822689B1A1D2B05D9054B187800
:10D60000FFF7BEFC2B68236038BD00BF0C23002051
:10D61000E82D0020E42D002038B5084D642445F0A5
:10D6200001054FF47A40A847013CFAD1044800F0C4
:10D63000EAFD2046BDE83840FEF7DCB8C0640200D1
:10D64000542B002013B548BB184B93F82440FF2CF3
:10D6500026D093F8273023B902B0BDE81040FFF779
:10D66000DBBFFEF7DFFF08B1FEF71EFD01238DF8DB
:10D67000043000238DF805309DF806300C4A23F065
:10D68000070301A920468DF80630FFF73BF808B1E3
:10D69000FEF70AFD01212046FFF7ACF802B010BDED
:10D6A00002B0BDE81040FFF7BDBE00BF542B002004
:10D6B00041D4010008B508490848FCF750FC08B1FE
:10D6C000FEF7F2FC0548F721FCF758FC18B1BDE85D
:10D6D0000840FEF7E9BC08BD0DD50100D02D0020A3
:10D6E00010B54FF08043814CD3F800242260D3F86A
:10D6F0000014D3F800240A43C3F800247C4A07CA64
:10D70000B6B008AB83E807007A491846FFF7D8FBA4
:10D7100008B1FEF7C9FC7848FFF70CFC08B1FEF72A
:10D72000C3FCFFF7F9FBFEF70DFA08B1FEF7BCFCEE
:10D73000724A73480121FEF737FA08B1FEF7B4FCCC
:10D74000FEF736F808B1FEF7AFFCFEF76FFD08B143
:10D75000FEF7AAFC00230BA901200B93FEF738FE6D
:10D7600008B1FEF7A1FC0BA8FEF798FE08B1FEF782
:10D770009BFC644A0A210820FEF768F808B1FEF70E
:10D7800093FC112304A88DF80C30FFF73BFE08B181
:10D79000FEF78AFC9DF8113001939DF812305A4A29
:10D7A00000931421594B0BA805F01EFD0BA806F0A1
:10D7B0009FFA0BA982B203A8FFF72AFE08B1FEF771
:10D7C00073FC0822002106A805F0A6F906231822FA
:10D7D000ADF81830ADF81C300DEB02002B23ADF87E
:10D7E0001A20ADF81E30FFF711FE08B1FEF75CFC01
:10D7F000FFF760FFFCF782FD45484FF41F720021E0
:10D8000005F08AF9424800F00FFD08B1FEF74CFC24
:10D81000404B0B930BA8FCF7F5FC08B1FEF744FC5A
:10D82000AC2200210BA805F077F902238DF82C30EB
:10D830004FF4A063384AADF82E300123ADF87830AC
:10D840001F928DF8A8304FF4C86242F6E063CDE92C
:10D850002D233248324B34930BA9FCF7C7F908B19A
:10D86000FEF722FC2D480121FCF7BDF91C22002106
:10D870000BA805F051F900234FF4A032CDE90B328B
:10D88000ADF83A304FF4F0228DF83C30254B0D9234
:10D8900010930322244B8DF838200BA81193FCF72A
:10D8A00085F808B1FEF700FC204800224FF48041C3
:10D8B000FEF78CF908B1FEF7F7FBFFF7B3FD23681D
:10D8C0009B0757BF1A4B12481968114845BF0122E0
:10D8D0000021012280F8272001F038F9FEF742F8F4
:10D8E000FFF784FEFDF77AFFF8E700BFE02D002088
:10D8F000A864020021D40100E42D0020F5D4010029
:10D90000C8640200AC2900209C64020094640200F8
:10D91000542B00206DD50100E42200205C2A002059
:10D9200045D601004DD50100F1D40100E8220020C8
:10D930000C230020FDF7E6BC7047000008B5064840
:10D94000FDF734FB30B9FDF747FB18B9BDE80840D7
:10D95000FDF7D8BC08BD00BF39D9010010B50D22B4
:10D9600088B0FF21044605F0D7F80822002103A85B
:10D9700005F0D2F803AB05AA01210020FDF7E8FC71
:10D9800088B901A905A8FDF741FC60B9019B02997E
:10D990005A8892000D2A28BF0D22204605F0AEF8C5
:10D9A00005A8FDF759FC08B010BD000000B54FF404
:10D9B000803389B0CDE90230082204230021684673
:10D9C000049305F0A9F801216B4605AA0020FDF794
:10D9D000BFFC02A970B905A8FDF766FC48F2066312
:10D9E000984204D10021054A0846FDF753FF09B0CB
:10D9F0005DF804FB05A8FDF753FCEFE735D90100FE
:10DA00007FB50822002101A805F086F801AB03AA22
:10DA100001210020FDF79CFC10B903A8FDF74CFC88
:10DA200007B05DF804FB431E0C3013F8012FFF2AEA
:10DA300003D18342F9D1012070470020704710B50F
:10DA40004FF4027288B00021044605F065F8082200
:10DA5000002103A805F060F803AB05AA022101200C
:10DA6000FDF776FC98B901A905A8FDF7CFFB70B9C1
:10DA7000019B02995A889200B2F5027F28BF4FF4A9
:10DA80000272204605F03AF805A8FDF7E5FB08B05C
:10DA900010BD000000B5134B89B0CDE9023008225B
:10DAA000822300216846049305F036F802216B4674
:10DAB00005AA0120FDF74CFC02A970B905A8FDF7E5
:10DAC000F3FB48F20663984204D10021064A084657
:10DAD000FDF7E0FE09B05DF804FB05A8FDF7E0FBEB
:10DAE000EFE700BF0100020035D9010038B5054D50
:10DAF000044645F001054FF47A40A847013CFAD1AD
:10DB000038BD00BFE0640200D0B10E4B02781A604D
:10DB10000D4B42781A600D4B82781A600C4BC2781C
:10DB20001A600C4B02791A600B4B42791A600B4B4E
:10DB300082791A600A4B827A1A600A4B427A1A601A
:10DB4000704700BF28230020302300201823002026
:10DB50001C2300202C23002014230020102300204D
:10DB600020230020242300201FB5144B1A689300A3
:10DB700003F1A043D3F80047E4070ED40324C3F80D
:10DB800000470F4B1C684FF04023C3F80845C3F80B
:10DB90000C254FF0FF32C3F81025CDE9000100221B
:10DBA00008486946CDE90222FFF7C4F820B104B065
:10DBB000BDE81040FEF778BA04B010BD282300205D
:10DBC000302300201C6502001FB5144B1A68930017
:10DBD00003F1A043D3F80047E4070ED50024C3F8AF
:10DBE00000470F4B1C684FF04023C3F808454FF027
:10DBF000FF34C3F80C45C3F81025CDE9020100221B
:10DC000008486946CDE90022FFF794F820B104B036
:10DC1000BDE81040FEF748BA04B010BD282300202C
:10DC2000302300201C65020007B5094B8DF8070062
:10DC30001B6801214FF0A04201FA03F3C2F80C3532
:10DC40000DF10700FFF790FF03B05DF804FB00BF84
:10DC50001C230020044B1A68012393404FF0A0427C
:10DC6000C2F80835FFF780BF1C23002007B5094B19
:10DC70008DF807001B6801214FF0A04201FA03F361
:10DC8000C2F808350DF10700FFF76EFF03B05DF82D
:10DC900004FB00BF1C23002007B5094B1B680121B2
:10DCA0004FF0A04201FA03F30DF10700C2F8083566
:10DCB000FFF78AFF9DF8070003B05DF804FB00BF83
:10DCC0001C23002070B5A0B014466A468023154678
:10DCD000013B13F0FF0302F8011BF9D1FFF7A4FF8A
:10DCE000A4B20CB920B070BD802C264628BF802677
:10DCF000F1B22846FFF7AEFFA41BF1E770B5194E4D
:10DD00003268012393400C4605464FF0A042F8B913
:10DD1000C2F80C3514B12046FFF7E8FE3268012343
:10DD200093404FF0A042B5B1C2F80C3514B1204673
:10DD3000FFF7DCFE3268012393404FF0A0426DB93B
:10DD4000C2F80C356CB12046BDE87040FFF7CEBE7E
:10DD5000C2F80835DEE7C2F80835E7E7C2F808354B
:10DD6000F0E770BD2C230020054B1A68FF2A1FBF67
:10DD7000012393404FF0A042C2F80C35704700BF1A
:10DD800024230020F0B5364B1D886A1C85B01A800C
:10DD9000002D63D1334F344E3A684FF0A04302F563
:10DDA000E072032143F82210326802F5E0726C46FB
:10DDB00043F822102D4A126802F5E07243F822500F
:10DDC0002B4B0FCB84E80F002A4B2B481B688DF898
:10DDD00000302A4B1B688DF80130294B1B688DF8E9
:10DDE00003302A462B462146FFF794F908B1FEF787
:10DDF0005BF9244B1A68FF2A0AD04FF0A04102F5C4
:10DE0000E073032041F8230001239340C1F80C354F
:10DE10001D4B1A68FF2A0AD04FF0A04102F5E073AB
:10DE2000032041F8230001239340C1F808353968E5
:10DE30004FF0A042012303FA01F1C2F80C1531683A
:10DE40008B40C2F80835114B1B68FF2B1EBF03F532
:10DE5000E073032142F82310FFF786FF05B0F0BD01
:10DE6000EC2D00201C2300202C2300201423002054
:10DE7000CC64020030230020186502002823002013
:10DE8000182300201023002020230020242300201A
:10DE9000054B1A68FF2A1FBF012393404FF0A04291
:10DEA000C2F80835704700BF2423002070B52D4A02
:10DEB0001388013B9BB21380002B51D12A48FFF7F6
:10DEC000E7FFFEF7FBFE294B1C684FF0A042012341
:10DED00003FA04F1C2F80C1525490D6803FA05F19F
:10DEE000C2F80C152349086803FA00F1C2F80C15B2
:10DEF00021490968FF291CBF8B40C2F80C351F4B14
:10DF00001E684FF0A04306F5E076022243F8262073
:10DF10001B4E366800F5E07006F5E07605F5E07515
:10DF200004F5E07443F8262043F8252043F8242024
:10DF300043F820201348006800F5E07001F5E07117
:10DF400043F820201048006800F5E07043F82020D6
:10DF500043F821200D49096801F5E07143F82120BB
:10DF600070BD00BFEC2D00201C6502001C230020AA
:10DF7000182300202C230020202300202823002009
:10DF8000302300201423002010230020242300200D
:10DF9000084B1868FF280CD04FF0A0410122D1F89F
:10DFA0000435824022EA03001340C1F80805C1F895
:10DFB0000C357047242300202DE9F843174BDFF878
:10DFC00060901B684FF0A0470646D7F81055DD401B
:10DFD0000C4605F001054FF06408D7F81035D9F864
:10DFE0000020D34003F001039E420ED1B4FBF8F3AE
:10DFF00008FB13439BB20BB9FFF7CAFF013C01209A
:10E00000A4B2FFF773FD002CE7D11DB1BDE8F843C2
:10E01000FFF73EBFBDE8F843FFF7A6BE242300206C
:10E020001423002070B5104E3368FF2B1BD003F56E
:10E03000E0724FF0A044012505FA03F3032144F8F0
:10E0400022106420C4F80C35FFF750FD33689D4062
:10E05000C4F808556420FFF749FD336803F5E07301
:10E06000022244F8232070BD242300200000000079
:10E0700007B5294B00210122ADF80610C3F8F025A1
:10E08000C3F80025C3F81815C3F814150921C3F8FF
:10E0900010150DF10601C3F82C16C3F830261A60CE
:10E0A000D3F80021002AFBD00022C3F8002101226E
:10E0B0005A60194BD3F80421002AFBD00022C3F880
:10E0C000042101229A60D3F81421002AFBD00022F7
:10E0D000C3F81421BDF806301B040F4B48BFADF840
:10E0E0000620C3F80025BDF8060000B207F00CFCBE
:10E0F00007A3D3E9002307F08BF9084B002207F0B0
:10E1000087F907F093FC03B05DF804FBAFF30080E0
:10E11000CDCCCCCCCCCC0C40007000400000503FAB
:10E120000B4938B50C23002451F8042B1578013B1A
:10E13000854208BF144613F0FF03F5D1054B002CB0
:10E1400008BF1C46204663685B689847204638BD78
:10E15000E8640200B86502007DDF7047A8DF704701
:10E16000AEDF704762DF704770B505688CB0064659
:10E17000FFF708FE95F82300FFF7D2FF00210446C1
:10E180002C2201A804F0C8FC95F827308DF8043043
:10E190006378ADF80630A36802937368039395F82B
:10E1A00028308DF8103063682046DB6998478DF879
:10E1B0001100FFF75DFF95F827300590032B0CBF8A
:10E1C0002C35002514230DF1020106A80B95ADF89E
:10E1D0000230FFF7C1FF30B9BDF802301BB1303358
:10E1E0006B4403F8180C63682246D96801A801F053
:10E1F00027FC636820465B699847FFF757FEFFF7E7
:10E20000F5F90CB070BD10B50446FFF741FE94F867
:10E210002430FF2B1FBF03F5E0734FF0A0424FF4F3
:10E22000003142F8231010BDF0B504468FB000282D
:10E2300000F0B380F423002183824FF6FF73438202
:10E240008175482204F11C0500F50D7004F064FC92
:10E250002846FFF773FB2846FFF780FB04F12C00EC
:10E26000FFF7EDFB2846FFF7DEFB30B34FF080539E
:10E27000D3F800214A4B9A420CBF4A4A4A4A1068D6
:10E28000516806AB03C31189927A19809A7006A966
:10E290000B22284604F032FC94F82730FF2B04BFF1
:10E2A000012384F8273094F82830FF2B04BF012382
:10E2B00084F828302846FFF779FB2846FFF724FC2E
:10E2C000FFF7B0FE00230193384B02AA03F11007B9
:10E2D000164618685968154603C50833BB422A46D6
:10E2E000F7D120250DF1060130468DF80350FFF7D8
:10E2F00039FF00284FD10126224601A93046ADF84A
:10E300000460FFF72BFF002845D101462A4606A8E6
:10E3100004F002FC0223ADF818309DF806308DF8A9
:10E320001A30234B0793BDF824308DF8296023F46D
:10E33000E75323F01F0343F4E05322463343ADF881
:10E34000243032F8020B40F2011306A9ADF82A304E
:10E35000FBF785FBF8B901462A4606A804F0DCFB6A
:10E360000323ADF818309DF806308DF81A304FF0C1
:10E37000011307930DF10303089322469DF82530FE
:10E3800032F80A0B8DF8296043F0020306A98DF8D4
:10E390002530FBF764FB0FB0F0BD0E20FBE700BF9C
:10E3A0001028050028650200346502004D65020052
:10E3B000F400010030B587B04FF6FF73ADF80620CA
:10E3C000428A9A4204460D461BD0837DCBB1828A95
:10E3D000BDF806309A4216D30021102202A804F09C
:10E3E0009BFB6388ADF808300DF106030493608A47
:10E3F0000595012302A98DF80A30FFF7B1FE07B099
:10E4000030BD0820FBE70720F9E707B58DF80510B8
:10E410008DF80720090A0422A0238DF806100DEBC1
:10E4200002018DF80430FFF7C5FF03B05DF804FB6F
:10E430002DE9F04F0E4693B00446002841D0002944
:10E440003FD00B88112B0AD0502B1DD0102B38D168
:10E450008B88438213B0BDE8F04FFFF793BC4FF6B3
:10E46000FF7343828069BC4D43689B699847C82409
:10E4700045F001054FF47A40A847013CFAD113B0AA
:10E48000BDE8F04FFFF712BDCB88C2889A421BD17E
:10E490000A8A022A18D101F11200FBF7D8FA78B1E2
:10E4A0000123A3750D2204F11C012046FFF782FF12
:10E4B00030F0080305D013B0BDE8F04FFDF7F4BD10
:10E4C000A07513B0BDE8F08F62889A42F9D1358A01
:10E4D000002DF6D0B37C332B3CD81F2B0CD8062B49
:10E4E000EFD8013B052B55D8DFE813F07600B300D9
:10E4F000CC00D500DE00EF00203B132BE1D801A2B9
:10E5000052F823F0D3E6010029E7010069E7010092
:10E5100071E80100C3E40100C3E40100C3E40100A9
:10E52000C3E40100C3E40100C3E40100C3E401004B
:10E53000C3E40100C3E40100C3E40100C3E401003B
:10E54000C3E40100DFE80100FFE801002FEA010059
:10E5500097EA010003F17002D2B2092AB1D8903BC8
:10E56000092BAED801A252F823F000BFBDEA01008A
:10E57000EDEA0100E3EA0100C3E40100C3E40100A5
:10E58000C3E40100C3E40100C3E40100C3E40100EB
:10E59000F9EA0100072D94D9F37C2377337D637763
:10E5A000737DA377B37DE377F37D84F82030337EEA
:10E5B00084F82130737E84F82230082D1CBFB37E8E
:10E5C00084F826301C342046FFF7F0F9FFF76EFC84
:10E5D0002046FFF799FA3DE7012D14BFF07C94F82F
:10E5E0002300FFF79DFDA061037894F823209A4251
:10E5F00005D084F8233004F11C00FFF7D7F9A38A73
:10E60000564A00250A216846CDE90055ADF8085064
:10E6100004F0EAFD684605F06BFB694682B22046CD
:10E62000FFF7C8FE1022294601A8009504F074FAED
:10E63000FEF7C2FF4A4A03461421684604F0D4FD9F
:10E64000684605F055FB82B269462046FFF7B2FEE8
:10E6500037E794F8273033B1002384F8273004F1EA
:10E660001C00FFF7A3F9A0694368012D9B6807D040
:10E67000F17C003918BF012113B0BDE8F04F1847F5
:10E680002946F9E7012D3FF41CAFF07C13B0BDE83B
:10E69000F04FFFF7C9BA691EC9B206F1130013B0F3
:10E6A000BDE8F04FFFF7D6BA94F8273033B1002316
:10E6B00084F8273004F11C00FFF778F9A06943685B
:10E6C0005B6913B0BDE8F04F1847A06943689B69C8
:10E6D000F7E7042D7FF6F5AE052D18BF96F9173034
:10E6E000D6F813701ABF4FF4616253434FF4E143FD
:10E6F0003FBA1F443846FEF765FF062D88BF337EBC
:10E7000094F8272098BF01239A4205D084F8273037
:10E7100004F11C00FFF74AF9CDE90047114A08212E
:10E720006846FDF7B7F8CCE6012D3FF4CAAEF37C9E
:10E73000062B3FF6C6AE84F8283004F11C00FFF724
:10E7400035F994F82730012B7FF4BBAEFEF734FF88
:10E75000CDE90040E2E700BF6065020040650200CD
:10E760004765020069E10100022D7FF6AAAEF17C47
:10E77000377DEDB2A5F10308012906F115065FFA10
:10E7800088F837D0022949D069BB012F3FF699AEEE
:10E79000B8F1040F7FF695AE4FF01809073DEDB2C2
:10E7A00009FB0748132D08F12C0828BF1325142254
:10E7B000404604F0B1F92A463146404604F09EF93D
:10E7C000EA1CD2B2715DB35C6A1CD2B20235B25C93
:10E7D000EDB243EA016343EA0243725D09FB07407D
:10E7E00043EA0223036404F12C0013B0BDE8F04FA8
:10E7F000FFF750B9042F3FF664AE142202FB07471F
:10E800005C370021384604F087F94246132A28BFB6
:10E8100013223146384604F071F9E4E7042F3FF63D
:10E8200050AEB8F1020F7FF64CAE063DEDB207F1E7
:10E830000C080B2D04EB081828BF0B250C22002117
:10E84000404604F069F92A463146404604F056F93C
:10E850006A1CD2B2715DB35C04EB0710023543EA67
:10E860000123EDB2A0F8CC30735D80F8CE30BAE76A
:10E87000022D7FF626AEB6F81330DFF8B0825ABA12
:10E880000BB9A8F80020B8F80000033DEFB250FA29
:10E8900085F5B5F5907F06F1150105DDC0F1200382
:10E8A000DBB29F4228BF1F4600F588703A462044DD
:10E8B00004F024F9B8F800201744BFB2B7F5907FF0
:10E8C000A8F80070FFF4FDAD012384F8303204F1A4
:10E8D0002C00FFF7DFF80023A8F80030F1E5022D47
:10E8E0007FF6EFADA069F17C42681469AB1EDBB224
:10E8F00006F11402A44613B0BDE8F04F6047072D9F
:10E900007FF6DFADA369B6F813700BB15B683BB956
:10E9100003223946204613B0BDE8F04FFFF775BD1E
:10E92000B6F815A00AF1FF33B3F5007F68D2B7F54A
:10E93000007F65D2BA4563D9A5F1080806F1180928
:10E940001FFA88F8494600224FF6FF7048F2084C3B
:10E9500093B2434556D306F112010D4415F8012C2C
:10E9600015F8023C43EA022383425ED194F87A32DE
:10E9700096F817B023B1B4F83632534517D0B3B177
:10E9800094F8273033B1002384F8273004F11C00B9
:10E99000FFF70CF80021A4F836A2A4F838124022A0
:10E9A00004F23A2004F0B8F8012384F87A3204EB38
:10E9B000D70507F0070695F83A323341DB0715D43F
:10E9C000A06943684A46D3F810A059465FFA88F315
:10E9D000D047012303FA06F295F83A32134385F83B
:10E9E0003A32B4F838320133A4F8383200223946CA
:10E9F0002046FFF70AFD13B0BDE8F04FFEF7F6BD65
:10EA0000022286E711F8013B5840082300F0010E6E
:10EA10004008BEF1000F02D080EA0C0080B2013B3A
:10EA200013F0FF03F2D1013292E70122DFE7A18A5E
:10EA300006297FF646ADB4F836328DF80130DA1D7E
:10EA4000D208402A4FEA132328BF40228DF8023013
:10EA5000B4F838328DF80330D51D8D424FEA1323B8
:10EA600084BFCA1F0D468DF804304FF0A10194F801
:10EA700034328DF8001088BF92B28DF8053004F260
:10EA80003A2194F87A328DF806300DF1070004F03F
:10EA900035F82A46D8E5012D1CBFF37C84F83432C2
:10EAA0000025A4F83652A4F838524022294604F230
:10EAB0003A2004F031F884F87A5202E5012D3FF44F
:10EAC00000AD6A1E1C340D2A28BF0D2206F1130169
:10EAD000204604F013F8204613B0BDE8F04FFEF7CF
